:100000000428FF3FFF3FFF3F0528830107280930F1
:10001000F7001E30F600E430F500F50B0D28F60B66
:100020000D28F70B0D280000013032200230F700B8
:100030003830F600AD30F500F50B1C28F60B1C2807
:10004000F70B1C28023032200230F7003830F6005F
:10005000AD30F500F50B2A28F60B2A28F70B2A28D5
:1000600014280428F0000F30831203139F00831616
:100070000313850170088312031385000800FF3FF6
:02400E00223F4F
:00000001FF
